S024000047534D2053656E6420534D5320616E64204D616B6520612063616C6C2E737265632E
S11300000C942A000C943F000C943F000C943F0085
S11300100C943F000C943F000C943F000C943F0060
S11300200C943F000C943F000C943F000C943F0050
S11300300C943F000C943F000C943F000C943F0040
S11300400C943F000C943F000C943F000C943F0030
S11300500C943F0011241FBECFE5D4E0DEBFCDBF1A
S113006011E0A0E6B0E0E4EAF2E002C005900D92EF
S1130070A433B107D9F70E943E010C9450010C94AB
S1130080000088BBA898A998AA9A8AE18A95F1F7F2
S113009000C0AA988FE193E00197F1F700C0000037
S11300A0089588BBA89AA998AA9A8AE18A95F1F733
S11300B000C0AA988FE193E00197F1F700C0000017
S11300C008958FEF87BB84BBAA982FEF89EF90E048
S11300D0215080409040E1F700C0000088E30E9476
S11300E041002FEF89EF90E0215080409040E1F7EC
S11300F000C000008EE00E9441002FEF89EF90E0E5
S1130100215080409040E1F700C0000081E00E944F
S113011041002FEF89EF90E0215080409040E1F7BB
S113012000C00000089581E00E9441008FE39FE138
S11301300197F1F700C0000008951F93CF93DF9358
S1130140EC018881882381F010E00E9451001F5F38
S11301508FE19EE40197F1F700C00000FE01E10F7A
S1130160F11D80818111F1CFDF91CF911F9108950D
S113017088E08AB986E880BD87E689B908955D9BE1
S1130180FECF8CB908951F93CF93DF93EC01888140
S1130190882381F010E00E94BF001F5F8FE19EE47E
S11301A00197F1F700C00000FE01E10FF11D80810D
S11301B08111F1CFDF91CF911F91089580E690E0F6
S11301C00E94C3002FEF87EA91E6215080409040BF
S11301D0E1F700C0000085E690E00E94C3002FEF25
S11301E087EA91E6215080409040E1F700C000008A
S11301F00E94930087EF90E00E949D0087E091E0C9
S11302000E94C3002FEF87EA91E62150804090407E
S1130210E1F700C000000E949300089580E690E09A
S11302200E94C3002FEF87EA91E62150804090405E
S1130230E1F700C0000085E690E00E94C3002FEFC4
S113024087EA91E6215080409040E1F700C0000029
S11302500E9493008CE191E00E94C3002FEF87EA93
S113026091E6215080409040E1F700C0000082E216
S113027091E00E949D000E94930008950E946100F5
S11302800E94B8000E94DE002FEF8FE493EC21500F
S113029080409040E1F700C000000E940E01FFCFB3
S10702A0F894FFCFFC
S11302A441540D0A00415445300D0A0041542B4376
S11302B44D47463D310D0A0041542B434D47533DB0
S11302C4222B393737393834313439313332322205
S11302D40D0A002020202053656E64696E67202077
S11302E4202000202020204D657373616765202041
S11302F42020004D6573736167652046726F6D201D
S1130304486F6D65207365637572697479205379D8
S11303147374656D3A0A00204D65737361676520D3
S113032453656E7420200053756363657373667537
S11303346C6C79212121002020202043616C6C699C
S11303446E6720202020004154442B393737393834
S113035434313439313332323B0D0A004154480DBF
S11303640A0043616C6C696E672063616E63656C3B
S107037465640000B8
S9030000FC
